:020000040001F9
:10C000003836002015C101002FC1010031C10100E7
:10C010000000000000000000000000000000000020
:10C0200000000000000000000000000033C101001B
:10C03000000000000000000035C1010037C1010010
:10C0400039C1010039C10100D1C3010039C101006A
:10C0500039C1010000000000E5C1010039C1010043
:10C0600039C1010039C1010039C1010039C10100E4
:10C0700039C1010039C1010039C1010039C10100D4
:10C0800039C1010031C3010039C1010039C10100CA
:10C0900051C3010039C1010059C3010039C1010078
:10C0A00039C1010039C1010000000000000000009A
:10C0B0000000000000000000000000000000000080
:10C0C0000348854600F07CF80048004711DC010079
:10C0D00038360020401E00BF00BF00BF00BF00BFB9
:10C0E00000BF00BF00BF00BF00BF00BF00BFF1D155
:10C0F00070470000401E00BF00BF00BF00BF00BF70
:10C1000000BF00BF00BF00BF00BF00BF00BFF1D134
:10C11000704700000321094802680A43026008488A
:10C1200002680A4302600748804707480047FEE765
:10C13000FEE7FEE7FEE7FEE7FEE70000240500401D
:10C14000540500407DC30100C1C0010030B50B465D
:10C15000014600202022012409E00D46D5409D42E1
:10C1600005D31D469540491B254695404019154667
:10C17000521E002DF1DC30BD03460B439B0703D05C
:10C1800009E008C9121F08C0042AFAD203E00B789C
:10C19000491C0370401C521EF9D27047D2B201E014
:10C1A0000270401C491EFBD270470022F6E710B512
:10C1B00013460A4604461946FFF7F0FF204610BD15
:10C1C000064C0125064E05E02046E36807C82B43D0
:10C1D00098471034B442F7D3FFF776FFBCE901006B
:10C1E000DCE90100F8B50024FF25013501262746CA
:10C1F0000094284601F0CEFF002808D0344840685B
:10C20000304204D0334800212818344301602D1DEA
:10C2100076007F1CADB2042FEBD3FF207D3001F000
:10C22000B9FF002807D02C480021016040070443D3
:10C230002A48006900902A4F200713D001260025C4
:10C24000304620420AD02748AA0011180869096917
:10C25000C004C00E8903BA58890F904776006D1C40
:10C26000042DEDD3002C30DA00241D4E00213019AE
:10C2700040304156491C25D00778BD06AD0E2846F2
:10C2800001F0F6F980003658002E1BD0BF090121BD
:10C29000A940154AA80080180068009A8003800F02
:10C2A000114202D0022802D00CE003280AD1032F49
:10C2B00005D102280AD00221284601F05BFF394649
:10C2C0002846B047641C042CCFD3F8BD0321F3E704
:10C2D00000630040006000407C61004000050050A9
:10C2E000E02C002000650040000700508307FF227B
:10C2F000DB0E9A408907090E994000280BDA0007E7
:10C30000000F0838830808489B001B18D869904321
:10C310000843D8617047830804489B001B181868BD
:10C32000904308431860704700ED00E000E400E02F
:10C3300010B506490020086048608860C86003495D
:10C3400040390860486002F07BF910BD401101409F
:10C3500010B502F00DF910BD10B50748406800286F
:10C3600007D08047002803D00022114600F082FA4F
:10C3700010BD01F0DDFA10BDC028002010B501F09D
:10C3800025FB002805D00E490C484860C8130D490C
:10C3900088610D48018CC9B201290ED1818C090731
:10C3A0000BD1018D0906090F042906D1808D0006E5
:10C3B000000F02D105490120886010BDDFFF07C0D2
:10C3C00000050040006C0040C00F00F00006004077
:10C3D000F0B53C4D012185B04902284601F0EFFE41
:10C3E00001270026384C002823D0FF21253128467C
:10C3F00001F0E0FE00281CD0FF21253128466E50B8
:10C400008121324A89009160617D002900D1476015
:10C41000022269460A7001F0C7FE0390E07C69467B
:10C420000872E0680190E674626868462168904787
:10C430001DE00421284601F0C2FE002817D0FF218C
:10C440000931284601F0B6FE002810D001F092FF15
:10C45000E07C217D88420AD1607D002800D16F6098
:10C4600081201A4980008860207D01F0E7FFFF21CC
:10C470001D31284601F09EFE00280DD0A07C218AA7
:10C48000884202D902F01EF906E0FF211D316E50EC
:10C49000002801D002F06AF9FF214531284601F059
:10C4A00089FE00280CD0FF2045302E50607D0028EA
:10C4B00000D02F60E07C002802D0207D01F0BEFF7C
:10C4C00005B0F0BD00200040282D002000230040D2
:10C4D00030B47446641E2578641CAB4200D21D46FD
:10C4E000635D5B00E31830BC184702E008C8121F08
:10C4F00008C1002AFAD170477047002001E001C14D
:10C50000121F002AFBD17047F7B584B000251688AA
:10C5100007461580406B1446002813D00378059811
:10C52000032E51D30221017021881122491C89B2A6
:10C53000218042542188491C89B22180435420889B
:10C54000401C2080386B00281DD0054620880599A6
:10C5500002461232B24237D811220A5420881022E1
:10C56000401C80B220800A542088401C20800F206C
:10C570002A5C2388401ECA54228840B2521C228062
:10C580000028F5DA0025384620300290807B00280C
:10C5900006D033462246059901F03CFA050014D135
:10C5A0000298407B002806D032462146059800F0CC
:10C5B000DDFC050009D1B878002823D0059886460F
:10C5C0002088001DB04202D90C2007B0F0BD68469B
:10C5D00079DF0028F9D12188032072465054208841
:10C5E0001921401C80B22080115420887146401CC3
:10C5F00080B2208041186846008802F0C7F8218880
:10C6000040182080F878002817D0218803230A4694
:10C61000FB56C91C0598B142D6D802218154218805
:10C620000122491C89B2218042542188491C89B2C7
:10C63000218043542088401C20807868002817D02F
:10C6400021880023C3560A46C91C0598B142BBD8AD
:10C650000221815421880A22491C89B22180425436
:10C660002188491C89B2218043542088401C2080A5
:10C67000388900280AD00094384601960622022103
:10C680000830059B02F0F7F805009ED1388A002893
:10C690000AD0009438460196072203211030059BEA
:10C6A00002F0E9F8050090D1388B00280AD00094F8
:10C6B00038460196152214211830059B02F0DBF84C
:10C6C000050082D1386A002806D0334622460599F3
:10C6D00001F02AF80500D8D1786A002806D0334640
:10C6E0002246059901F060FB0500CED10298007B3F
:10C6F000002807D0334622463846059901F0AEFEA1
:10C700000500C2D13878002807D033462246384683
:10C71000059901F07DFB0500B7D1284655E710B516
:10C7200001220221002000F0B9FD002801D00728D5
:10C7300012D107220221012000F0B0FD002801D013
:10C74000072809D100210A22084600F0A7FD002889
:10C7500001D0072800D1002010BD000030B5A7B0DF
:10C76000382101A8FFF721FD02216846017100244C
:10C7700084710521C17138210FA8FFF716FD01252D
:10C7800010A885810D48149024211DA8FFF70DFDE8
:10C7900020A8057040202190B4202290084B1DAAAB
:10C7A0000FA9009401A800F08DF9002803D0002201
:10C7B000114600F05FF827B030BD000004280020CB
:10C7C000F5E10100044842680121C9050B46934385
:10C7D00083600A40C26070470005005070B50024B5
:10C7E000064D06E06968E000085C012101F090FB5D
:10C7F000641C28788442F5D3002070BD8C2800206A
:10C80000F8B50C4615460646052A01D20720F8BDA4
:10C8100001F050FC002803D101F022FC0028F6D1E1
:10C82000104900204E600C70C8608D6008610E4D8C
:10C830000DE0E00069688019009181786A465170C6
:10C8400000780A4A694601F0B3FB0028DFD1204690
:10C85000641EE4B20028ECD1054A0021024800F031
:10C8600023F8F8BD8C280020B4E90100DDD80100D0
:10C8700025D80100BFF34F8F03490248C860BFF3BA
:10C880004F8FFEE70400FA0500ED00E010B5826866
:10C89000C3689A1A83889A4203D801F015F80020D9
:10C8A00010BD042010BD0000094B9B68002B07D071
:10C8B000002A07D0002805D00068037C002B03D095
:10C8C000082070470720704741744261002070477C
:10C8D000A0280020FFB59007002581B00E46144621
:10C8E000002832D11B4F002C31D001F021FD0498DB
:10C8F0007861032038702246BC601834002033462B
:10C9000018214B43C10089180D704D708E704C601A
:10C910001C19401C0328F5DBFD607D7001240E48C6
:10C92000BD702405046003211420FFF7DFFC0B48D1
:10C9300004600B4C0198A06003211120FFF7D6FC86
:10C9400060683861002005B0F0BD0720FBE7BD60DE
:10C95000FBE70000A028002080E200E000E100E00A
:10C9600000150140FEB50D461B491746896804466F
:10C9700000292AD0002C28D0052D01D20720FEBD89
:10C980006069002821D0607C012820D0002601F0B9
:10C9900035FFC0001049019089684018694601F0D0
:10C9A00057FF002815D0012101700C4944604968E7
:10C9B0000830E2C008490198896841186846007843
:10C9C000487001F015FE0020FEBD0820FEBD2E4679
:10C9D000DDE70420FEBD0000A02800200015014076
:10C9E000F8B5134D0446A96800291CD0002C1AD0B4
:10C9F0006069002817D00026267401F0FFFEC700EA
:10CA0000A8686946381801F023FF00280DD00221DC
:10CA100001704460A868391868460078487001F0D1
:10CA2000E7FD3046F8BD0820F8BD0420F8BD000041
:10CA3000A028002010B50446064801214470401C7F
:10CA400001F040FB112803D121460348FFF71EFFE8
:10CA500010BD000060280020D02C0020F0B50C464E
:10CA600093B01F216A461180072600279180002875
:10CA700009D0C17849070DD502A9FFF745FD002867
:10CA800009D102AD01E000251780002C0ED0E0781E
:10CA9000002802D0304613B0F0BD01AA0AA92046F2
:10CAA000FFF732FD0028F6D10AAA02E0684600220C
:10CAB000878068468088C3B268460088C1B228462D
:10CAC00072DFE8E770B50D460499164604003FD0C2
:10CAD000002E3DD03F4800224271C36001612422F4
:10CAE00031463D48FFF748FB00F0B6F83A4934318B
:10CAF0000846103801602031816038215C38FFF72A
:10CB000054FB3548217838380170A1788170E1787C
:10CB1000C170617841706269216942610161E268B6
:10CB2000A168C26081600146E369A269CB618A6144
:10CB3000616A002916D00246AC320346B83342621D
:10CB40009360616A0E88168089889180002106E0D2
:10CB50000E2070BD666AB668765C5E54491C968885
:10CB60008E42F7D8A16A00291AD01B4BAC331A4663
:10CB70000C3A93608262A16A89889180A16A0988CF
:10CB80001180002104E0A66AB668765C5E54491CF8
:10CB900096888E42F7D82C210A5D0F4918390A73FE
:10CBA000216A002908D00B4914310162226A528897
:10CBB0004A80226A12880A806168002904D00549E7
:10CBC000891D416061684160034829463838FFF794
:10CBD00045FF70BD2C280020B82B002010B502881E
:10CBE0001C4C102A17D00021112A1AD0192A11D151
:10CBF000807900280ED1607901281ED0022822D029
:10CC0000032822D0042805D12171E2680846002AB1
:10CC100000D0904710BD017D0129FBD18088208183
:10CC200010BD6170808821898842F9D1012005E01A
:10CC300021690029F4D0884710BD022000F034F8A3
:10CC40000028F5D110BD0320F8E70320207104204F
:10CC5000F4E700002C28002010B507210148FFF759
:10CC6000A4FA10BD4428002010B50D480078012812
:10CC700014D10C4C6078002810D16079002802D0C3
:10CC800074DF00280BD101206070607900F00CF88F
:10CC9000002803D02169002900D08847002010BD5A
:10CCA000B82B00202C280020F0B5754C87B060719F
:10CCB000002606A8069601F027FB0127082806D0C3
:10CCC00000286FD10698002802D02770D4E006967D
:10CCD000FFF7C2FF6B4D6878002802D06079012809
:10CCE00005D0A87800280AD06079022807D1E16829
:10CCF000002903D0E7700820884700E0E6706079DB
:10CD0000012808D16878002809D05D48193001F061
:10CD1000CDFA002803D06079022802D00CE002206E
:10CD20006071A878002805D05548193001F0BEFA86
:10CD3000002801D103206071287B002804D160798C
:10CD4000032801D104206071287E002804D1607975
:10CD5000042801D166712671E16800290AD0607942
:10CD6000032801D0042805D12878002802D0607853
:10CD7000002818D0A67018216846FFF716FA6846F2
:10CD80000670019606720396607901280FD002287A
:10CD900016D03C4E243637465C3F03281CD004286E
:10CDA0005ED13BE069E0A77007208847E3E734489D
:10CDB000183001906846077046820682277152E05B
:10CDC0002F48183001906846077029894182A98848
:10CDD00001820220207146E0A88A69464882288A9A
:10CDE00008822848243001F0B5FD002805D02878B5
:10CDF000002802D06078002801D003202FE0022014
:10CE00006946087204200396F8701E4800213838DD
:10CE1000FFF724FE002830D1052020E0A88B6946CA
:10CE20000882288C48821748243001F093FD00289E
:10CE300005D02878002802D06078002801D004208E
:10CE40000DE002206946087204200396F8700D4830
:10CE500000213838FFF702FE00280ED1062020718D
:10CE60006079002803D0684673DF002805D1E168A7
:10CE7000002901D020798847002007B0F0BD0000CC
:10CE80002C280020B82B002070B5054601461C2236
:10CE90000E48FFF771F90E4C00262670296800290C
:10CEA00006D00822201DFFF767F9201D7ADF02E077
:10CEB0000748001D7BDF002807D1401E6080667098
:10CEC000044A00210448FFF7EFFC70BDA42C0020A9
:10CED0004C28002099E70100A0E90100F8B5214C99
:10CEE000028800271E4DE689102A15D01E49112AF6
:10CEF00021D0122A2DD0502A1CD1801D0288B24286
:10CF000018D1028B022A15D1C27E837E10021843EB
:10CF1000C007C00F0CD112E081886980014610481B
:10CF2000082216310C30FFF727F96F70002E01D15F
:10CF300000F044FCF8BD0020C04368806F700868B2
:10CF4000FFF74EFD0028F5D0A1690029F2D08847EF
:10CF5000F8BD811D024808220C30FFF70DF9E7E704
:10CF60004C280020A42C0020A0E901007CB5054637
:10CF700008880C460930904201D90C207CBD6846D7
:10CF800071DF0028FAD121880820685420881B21ED
:10CF9000401C80B220802954208800A9401C80B207
:10CFA0002080401906220131FFF7E6F82088694603
:10CFB000801D80B220800978002900D001212954E9
:10CFC0002088401C208000207CBD000010B5044655
:10CFD000FFF784FF2146064800F040F8204601F0A4
:10CFE0001BF92046FFF7FAFD204600F08DF810BD32
:10CFF000F82A002030B5184B0D4604000FCB85B041
:10D0000003936B4607C324D0002D22D00020C043D9
:10D01000A0822868A0610020A0752146684663DFD1
:10D02000002814D121786846817401210182A21C54
:10D0300004A90120A0DF002809D12946204601F0DB
:10D04000AFF9002803D12946204601F051FB05B075
:10D0500030BD0E20FBE70000A4E9010000281ED02F
:10D0600000291CD00A88102A14D0112A14D0502A62
:10D0700015D1891D0A88038A9A4202D10B8B022B93
:10D080000ED083889A420AD18369002B07D00A8B7D
:10D090001A311847898801E00021C943818270470D
:10D0A000CA7E8B7E11021943C907C90F00D0012126
:10D0B000817570477CB5134E00250C463060002901
:10D0C00018D06946002000F0B5F8002819D101A950
:10D0D000012000F0AFF8002813D168460179002044
:10D0E000002901D0022004E069460978002900D017
:10D0F0000B2020707068002802D1FFF710FB054656
:10D1000028467CBD2028002010B51C4C0188606892
:10D1100010290DD011290AD1401E606007D1FFF7F8
:10D12000FEFA002803D02168002900D0884710BDEE
:10D1300000281ED100210122084600F0AFF8002887
:10D1400001D0072811D107220221012000F0A6F802
:10D15000002801D0072808D104220221002000F075
:10D160009DF8002805D0072803D02168002900D0A9
:10D1700088476068401C606010BD000020280020C7
:10D1800010B5032000F01EFA002801D0062800D1B7
:10D19000002010BDF8B507460024234802E0641CB7
:10D1A000042C1AD2A2008258BA42F8D1042C14D20C
:10D1B0001D481E4E0C38002929D001290ED0022905
:10D1C0000BD16000201880194578002D05D0184833
:10D1D0000169002901D028468847F8BD610061181F
:10D1E000755C8E19717800290CD011490A224968A2
:10D1F000806851430E4A521CFFF7B4FB002801D14E
:10D200000B4847700A48B17814300155DDE7806853
:10D21000FFF7E6FB06486100611814308919005DCC
:10D220008D78A842D1D0F8BD70E90100542B0020C0
:10D230000828002004280CD2074A1269074B8000F6
:10D240001B5C01209840904300D001200870002012
:10D2500070470020FAE700000005005070E9010067
:10D2600010B5042806D0072810D00A2801D101F0F3
:10D270003CF910BD08481321408876DF08E00028FB
:10D28000F7D000221146FFF7F5FA10BDFFF7ECFCCE
:10D290000828F4D110BD00000028002070B500233C
:10D2A000042811D2440004190D4D012A02D101298C
:10D2B0000DD0002246008019094E801900290CD09B
:10D2C000012906D0022906D00723184670BD0D306B
:10D2D000C2B22A55F9E74270F7E78270F5E700001D
:10D2E000542B002010B5054A0146127A0020D207BF
:10D2F00002D0084600F054F810BD000008280020B5
:10D3000070B50E46204905464E608D6000200A61CA
:10D31000A9071ED50024012211462046FFF7BEFFB3
:10D32000641C042C02D20028F5D012E0002810D191
:10D33000720804211548FFF763FA002809D1FFF7A6
:10D340004DFA002805D11148114A00211438FFF781
:10D35000ABFAE90706D00F220E4952058A60002376
:10D36000CB608A6100280DD108480B4A00211C3887
:10D37000FFF79AFA002805D10448084A0121183815
:10D38000FFF792FA70BD00000828002080E9010034
:10D3900001D601000005005069DA0100C5C701008F
:10D3A000FEB5844D0721EA688905914302920191F7
:10D3B0000646696800208A00009107467E4C89185D
:10D3C0003300FFF785F8180D1515394B5B6F86880C
:10D3D000919AA3F3AFAFAFAFAFD9DFE5ECF3F3149E
:10D3E0000F21029A49059143A160E7602F70FEBDAD
:10D3F0000198A060E76060680F21490548408002FD
:10D400006E4809D5A060E760022E02D1E120C0007D
:10D410000AE07D20400107E0E060A760022E01D114
:10D42000C82001E0FF2091302E706421FEF78EFEAF
:10D4300000994143002247E00198A060E7606068DE
:10D440000F214905484080025C4804D5A060E76090
:10D4500019204001E8E7E060A760E1E70198A060DB
:10D46000E76060680F21490548408002534802D5B3
:10D47000A060E760CDE7E060A760D3E70198A06017
:10D48000E76060680F214905484080024B4802D59B
:10D49000A060E76001E0E060A7602E7000984100A6
:10D4A000002211E00198A060E76060680F21490543
:10D4B00048408002414802D5A060E76001E0E0609A
:10D4C000A7602E70009900223D480068FFF74AFAD5
:10D4D000FEBD019958E061680120800502468A433B
:10D4E000A2600140E160EDE7606801229205134609
:10D4F0008343A3601040E060D2E7606801218905A2
:10D500000A468243A2600840E060DBE762680120CF
:10D51000800503469343A3600240E260C0E7E160F8
:10D52000A7602DE026484068FFF75AFA11218A1BB0
:10D5300001D0002807D00F22E96852051140A160F0
:10D54000E760EF60FEBD0121C905E960012A0CD941
:10D550001046C82148436421FEF7F8FD696800229F
:10D56000414317484068FFF7FDF90F22E96852056B
:10D570001140E160A760FEBD0F214905A160E76091
:10D580002E70FEBD07218905A160E7600B49C6E743
:10D590000D214905A160E76001218905BFE703214D
:10D5A000C905A160E7608910B9E7FFE70F214905C8
:10D5B000B5E700000828002000050050000020000A
:10D5C00064E90100F0B500210B4C0C4D03273F042A
:10D5D0008A00A25892005619326801238B400340FA
:10D5E00000D00323BA431B0413433360491C0429AE
:10D5F000EED30020F0BD000070E9010000070050EC
:10D6000010B500780221FFF7C5FD10BD0022D243FE
:10D61000830004490428CA5002D308182030027736
:10D6200070470000E02C0020F0B50025ED43002AF3
:10D6300002D00023042601E0042308260B4C04E05A
:10D640009F00E7597F1C04D05B1CB342F8D32846E7
:10D65000F0BD26185DB2203635709E00A151002A1B
:10D66000F5D1E11820310877F1E70000E02C002027
:10D67000024909182020085670470000E02C0020BD
:10D68000F8B52348C16800293ED00E6821494C688E
:10D690000769C078E11B0D022D0AED1C002814D18A
:10D6A00001201D4A000450601B4A403A50601B494B
:10D6B000400008601A4908601A49012008602F20BC
:10D6C000FEF718FD12490120C870B54200D2354658
:10D6D000E81900020F4B000A403318600D4A5168E8
:10D6E000001B091B0902090A0002C91C000A814229
:10D6F00009D9506818602F20FEF7FCFC012007496B
:10D70000400480390860F8BD00F012FEF8BD00004A
:10D71000A0280020001501404013014080E200E0F5
:10D7200000E100E000100140F8B5064610881446FC
:10D730008446801D0D46984201D90C20F8BD3288E0
:10D740000720062AFAD31927FF01184BBA4201D93C
:10D750009A42F3D171880629F0D3B94201D999428E
:10D76000ECD19A4203D0994201D08A42E6D80521F1
:10D770006046295420881221401C80B22080295400
:10D780002088401C80B220804119308800F0FEFFC4
:10D790002188401880B220804119708800F0F6FF7F
:10D7A0002188401820800020F8BD0000FFFF000005
:10D7B00010B500221146FFF75DF810BDF8B5164808
:10D7C00000F0F6F8144D00260C3D144C002807D04C
:10D7D000616900291CD001206A461070684616E075
:10D7E0002878002805D06169002911D068460670A4
:10D7F0000DE0687800280DD0A16809480022006873
:10D80000FFF7B0F8002803D0A169002900D08847AD
:10D810002E70F8BD6168F0E758280020A42C002085
:10D82000A0E90100F8B500260124164D25E069683D
:10D83000F00047183878214681402A690B46134288
:10D8400019D08A432A6100F001FC0146387822464B
:10D85000EB6882401A400B4683409A420BD17A789B
:10D86000012A01D0012200E000227B684A40002BFF
:10D8700001D0D1B29847761CF6B228788642D6D32A
:10D88000F8BD00008C28002010B50E4900234A780E
:10D890008C78A24212D0521CD2B24A70022A00D115
:10D8A0004B704A78074B920018339A580260086907
:10D8B00010180002000A0861012010BD036000205A
:10D8C00010BD0000A0280020C26883881A400368A9
:10D8D0009954C168491CC16070470000F8B50746FB
:10D8E000114E0125BD403068FFF77AF8002806D1B7
:10D8F0000E4C20690146294202D0A8432061F8BDA0
:10D90000384600F0A3FB0028E06801D0284300E07F
:10D91000A843E0602069002228432061A1683068A4
:10D92000FFF720F8F8BD0000B4E901008C280020C2
:10D93000F8B51E4C2078002837D02069002807D081
:10D940000025E068002805D00026002D04D013E053
:10D950000125F6E70126F8E7684651DF052806D0DD
:10D96000002806D000221146FEF784FF04E00125BE
:10D9700002E0216900988847002E12D1608869462C
:10D980000880A06861DF052806D0002806D00022A4
:10D990001146FEF76FFF04E0012602E0E168A0688F
:10D9A0008847002DD8D0002ECFD0F8BDC028002049
:10D9B000418805480288914204D34088814201D8B9
:10D9C0000120704700207047502800201048018C2B
:10D9D000C9B2012917D1818C090714D1018D09061B
:10D9E0000A0F03D1828D1206120F0ED0090F0129E2
:10D9F00003D1828D1206120F07D0032903D1808D27
:10DA00000006000F01D00020704701207047000081
:10DA1000C00F00F030B51588EC1C9C4201D90C20D9
:10DA200030BD02244C5513881C255B1C9BB213800F
:10DA3000CD5413885B1C9BB21380012807D00228A9
:10DA400007D0032807D0042807D0072030BD0020C6
:10DA500004E0012002E0CC5401E00320C854108807
:10DA6000401C1080002030BD10B50448017AC90761
:10DA700002D00078FFF794FC10BD000008280020B9
:10DA8000F8B52C49C8680A690C780F798968864608
:10DA9000944600913EE00099E20055182A7836E05D
:10DAA000182353436968521CC918AB78D2B2934209
:10DAB00000D100220B78022B02D0032B27D123E0C8
:10DAC0004E680346014603E0B14204D00B46C969E3
:10DAD00000291CD0F8E7002919D08B4208D1C06971
:10DAE000002805D1144F0126BE600026B446012748
:10DAF0000E68C969D961002909D00B689B190B60B0
:10DB000005E00174C06900E000210028F9D16978BE
:10DB10009142C5D12146641EE4B20029BBD105491A
:10DB200062460A61C8600F71704501D00120F8BDDE
:10DB30000020F8BDA028002000100140F8B50446E0
:10DB400031480026C168009107784EE02E48F90060
:10DB500080680D1843E0002C02D02046E4691FE0E5
:10DB60002878182141436A68401CC0B251182870B7
:10DB7000AA78904200D12E700A784868012A30D1E4
:10DB8000027C002A2DD18A684260CA6882600A69D4
:10DB9000C260496981611C490979002900D0466049
:10DBA000194943680A699C46991A0902174B090AE0
:10DBB000994202D28268891807E06146511A090227
:10DBC0008268090A8A4202D9511A016000E006609F
:10DBD0004660012186600174C66100F011FD002CD1
:10DBE000B9D1287869788842BAD138467F1EFFB209
:10DBF0000028ABD10448C1680098814201D00120BF
:10DC0000F8BD0020F8BD0000A0280020FFFF7F0025
:10DC1000002388B0584A05211846FEF75BFE00280D
:10DC200003D000221146FEF725FE544A5449032032
:10DC3000FFF766FB002803D000221146FEF71AFE0C
:10DC400069460020FFF736FA002803D0002211466B
:10DC5000FEF710FE6846007802287CD00020694656
:10DC60000871032747480024076043492346482298
:10DC70005C39082000F064FC002803D00022114623
:10DC8000FEF7F8FD009468460194047060DF0028F8
:10DC900003D000221146FEF7EDFD3B4800F046FCA4
:10DCA000002803D000221146FEF7E4FD0125374E7F
:10DCB000AD05F560112069460872052234A102A85D
:10DCC0007CDF002803D000221146FEF7D3FD00942C
:10DCD00010216846019401803C214180FF2184800D
:10DCE0009131C1807ADF002803D000221146FEF76F
:10DCF000C1FD2948009069462848FFF77BF90028B4
:10DD000003D000221146FEF7B5FDFEF727FD1C21CA
:10DD10006846FEF74AFA0520C00301900F20000470
:10DD20000290009468460773C48104741C480590EF
:10DD30001C4806906846FFF7A7F8002803D0002289
:10DD40001146FEF797FD0320FEF7AEFF002805D031
:10DD50000022114600E00BE0FEF78CFD70684002E7
:10DD6000C00F284606D0F0606420FEF7B3F9F5E74F
:10DD7000012074E7B060F7E73029002061D201008C
:10DD8000CD0C000058070050CDCF01000005005019
:10DD90004652455458000000CFE10100F82A002007
:10DDA00089E20100B1D7010070B5144682880546AA
:10DDB0000E46921C2088911C4118994201D8FE2AD7
:10DDC00001D90C2070BD521C32542088FF21401C08
:10DDD00080B2208031542088401C80B2208081197C
:10DDE000288800F0D3FC2188401880B22080AA88BF
:10DDF000002A09D0A968002908D08019FEF7BCF9CB
:10DE00002088A98840182080002070BD072070BDA0
:10DE1000F8B50F46017814460546012902D1687805
:10DE2000002806D02088821C9A422DD8012902D0D1
:10DE300006E00720F8BD69784118891C994223D86B
:10DE4000181A801E86B2684606802188B81C0818F9
:10DE500069467DDF0028EDD12878022805D1694682
:10DE60000988B14201D809210AE00821012805D119
:10DE70006878B04202D86A46108001E068460680A1
:10DE800068460088FE2801D90C20F8BD2288401C75
:10DE9000B8542088401C80B22080395420886946BC
:10DEA000401C20800988401820800020F8BD000018
:10DEB0008207D30EFF229A408907090E10B59940B8
:10DEC00000280BDA03071B0F083B9C080C4BA4002F
:10DED000E418E36993430B43E36107E08408094BCB
:10DEE000A400E418236893430B432360C106C90EC2
:10DEF00001208840044908600449086010BD000002
:10DF000000ED00E000E400E080E200E000E100E07D
:10DF1000F3B581B00F46019800F0DEF90124002826
:10DF20001E4E019817D0FFF7A3FB80192030007F09
:10DF30008009032802D001280BD005E018480069A9
:10DF400001998C40204204D00321019800F012F97D
:10DF5000FEBD0221F9E700F0CBF90028F8D00198C6
:10DF6000FFF786FB05468100C81D0E4AF930891867
:10DF70000A6980B222430A610B49401800210160FE
:10DF8000002FE5D00198FFF773FB80003058002880
:10DF9000DED00648AC404460FEBD0000E02C00200E
:10DFA0000005005000650040006000400063004034
:10DFB000FEB515460E460446002700F083F90028FA
:10DFC00001D0082738E0F27829462046FFF72CFBDD
:10DFD0000546401C2FD0B078002807D01748A10074
:10DFE0000918086802229043086007E0002173784E
:10DFF000204600910A46019100F0AAF8F078002826
:10E0000010D00F48AA001018317802690D4B1A4041
:10E010000261E206D20C8907890B0A4301690A43AF
:10E02000026109E00848327840192030017F9201EE
:10E030001143017700E004273846FEBD0007005079
:10E0400000650040FFE0FCFFE02C00200349096967
:10E05000C140C807C00F00D0012070470005005024
:10E0600070B5124D2879002801D0082070BD0F49E5
:10E0700000204039421E0B182033401CC0B21A70D9
:10E080002028F8D300242046FFF7C0FA641CE4B22D
:10E09000082CF8D303210620FFF70AFF01200449CA
:10E0A000C007486001202871002070BD202D00208D
:10E0B0000063004002480079002800D0012070472A
:10E0C000202D0020F8B5204C0026A27C002A01D08B
:10E0D0001120F8BDA174A060002020821B4DFF27F5
:10E0E0001D37E8510120A86000F0ECFA61680029B2
:10E0F00011D026E0FF2701372946144800F05AF8CE
:10E10000002802D1208AB842F6D1208AB84203D032
:10E1100000F0D8FA00E03D46A07C218A8842E9D888
:10E12000218AC81FF93801D10F2608E0074F294678
:10E13000384600F03FF80028F9D00120F8600020B0
:10E14000A0743046F8BD0000282D002000200040BB
:10E1500030B552000A439900039C0A432102049DF2
:10E160000A4329040A43024980004018026030BD76
:10E1700000070050820006481018026803231B04A1
:10E180009A430260026809040A4302607047000073
:10E1900000070050034940180068012800D0002003
:10E1A00070470000006000400921C901411808685B
:10E1B000086070474058002800D0012070470322B3
:10E1C000120280184068084000D00120704770B5E6
:10E1D00016460D46002405E0285DFEF72BFC0028BE
:10E1E000FAD1641CB442F7D30A20FEF723FC0028BE
:10E1F000FAD170BD10B500280BD0032808D1022039
:10E20000FFF770F8002803D000221146FEF732FB1A
:10E2100010BD00F06AF910BD70B50188194C0546B3
:10E22000102912D011291BD020464088132924D050
:10E23000522909D100231A461946A9DF002803D024
:10E2400000221146FEF716FB70BD0720FFF74AF8C3
:10E25000002803D000221146FEF70CFBA8880AE034
:10E260000020FFF73FF8002803D000221146FEF7F8
:10E2700001FB0020C043608070BD00231A46852149
:10E280007FDFDBE70028002010B50078002809D1E7
:10E2900005483B21408876DF002803D00022114644
:10E2A000FEF7E8FA10BD0000002800200021425CC3
:10E2B000002A01D001207047491C0629F7D300200D
:10E2C000704700000349081820214156C817401C18
:10E2D00070470000E02C0020044908182021415616
:10E2E000042901DB0120704700207047E02C00204A
:10E2F0000449081820214156042901D20120704701
:10E3000000207047E02C002007490979490701D413
:10E3100008207047002804D0044949780160002093
:10E3200070470E207047000068280020402D002014
:10E3300070B501240B49600408600B4940108860E7
:10E34000094940398860094D6C602F20FDF7D2FEE5
:10E35000AC60074D00242F202C61FDF7CBFEEC7044
:10E3600070BD000080E100E040130140001001405A
:10E37000A0280020FF21074809310022425006480A
:10E3800081690648037DC268D154017D491C01752D
:10E39000704700000020004000250040282D00208C
:10E3A00070B500240546601C90B00007000F08A956
:10E3B000103008940870601C0007000F103048707F
:10E3C0008878F9263040801C88701C2101A8FDF750
:10E3D000ECFE6946087910210843694608710294E9
:10E3E00008A80494059407940690287808A98871D1
:10E3F000032069468884112000940870487088784A
:10E40000E7213040801C084001263043694688706F
:10E4100014210AA8FDF7C9FE09A80A9068460B90C6
:10E4200069460E8614204C8688862B4668880C33F5
:10E430000AAA01A9A2DF10B070BD00001FB5012219
:10E4400069460A7008720448C16801910021C174CC
:10E4500006C8684690471FBD282D0020FFB5074617
:10E46000806A81B0144600283DD00025384620300F
:10E47000009033E00C20B96A68430E18B088801C05
:10E48000FE2802D90C2005B0F0BD22880299401C5C
:10E49000885420881622401C80B2208002990A5499
:10E4A0002088401C80B2208002994118308800F0FA
:10E4B0006DF92188401880B22080B288002A0AD0E5
:10E4C000B16800290FD0029BC018FDF755FE2088C7
:10E4D000B188401820806D1C0098EDB2007BA842E6
:10E4E000C8D80020CFE70720CDE710B50020FEF701
:10E4F000F9FE002803D000221146FEF7BBF9FEF713
:10E500003FFE002803D000221146FEF7B3F93CDF9E
:10E51000002803D000221146FEF7ACF910BD10B55B
:10E5200008461146C046C04610BD0000002803D072
:10E530000249C860002070470E207047C0280020A4
:10E5400070B5002901D08C0701D0072070BD064CA2
:10E550000125A16062800549636010DF0028F5D1C4
:10E56000257016202EDF70BDC02800201FE5010099
:10E57000FEB51E4C00252769E06802906846FFF74B
:10E5800083F90190FFF77CFA0646019800281FD016
:10E5900000230098E16817E00E680A46864202D917
:10E5A000301A086012E0801BF31800261660D66847
:10E5B000D169B446002E07D0FE183602360A5660DE
:10E5C00066469660D56115460029E5D10126E160D1
:10E5D0002846FFF7B3FA002801D1002E02D0029896
:10E5E000FFF74EF800202071FEBD0000A02800209B
:10E5F00001200249000508607047000000E200E0C9
:10E6000010B50E4BD968002906D002680C68A242EA
:10E6100004D8A21A0A60C161D86010BD0B4604E09C
:10E620000B46C969121B002904D00C689442F7D329
:10E63000A41A0C600260C161D86110BDA02800203E
:10E64000F8B51E4DEC68002C36D01D4800274068F8
:10E650002969401A0602360A2068B0421AD8361ACA
:10E66000C7192246107CE469002811D000201074DC
:10E670006B69002B09D0916950699847002807D031
:10E6800000221146FEF7F6F802E0516990698847CA
:10E69000002CE1D16978A878814206D1401CC0B233
:10E6A000A870022801D10020A87004490006800D3E
:10E6B00018310F50FFF79CFFF8BD0000A028002084
:10E6C00000150140FF2107481D3100224250064835
:10E6D000028A8168895C028A521C02820348C161F5
:10E6E0007047000000200040282D00200025004039
:10E6F00070B58EB005461C216846FDF756FD69468B
:10E7000008780C210843694608700024019403949A
:10E71000049405940694287808A988700220694614
:10E720000884601C0007000F103007940877112040
:10E730004877887FF9210840801CE721084001269E
:10E74000304369468877142109A8FDF72EFD08A8F3
:10E75000099007A80A9069468E851420CC85088602
:10E7600068882B1D09AAA2DF0EB070BD1FB500215D
:10E770006A4611701072044882680192817406C85A
:10E78000684690471FBD0000282D00200870000A31
:10E79000487002207047000038B51549154A48886E
:10E7A00090420FD04A78144C521CD2B24A70237B4C
:10E7B000934208D3091D75DF002803D0A169002901
:10E7C00000D0884738BD00254D70217C002907D036
:10E7D0003B2176DF002803D0A169002900D08847BB
:10E7E00061690029EED068460570884738BD000091
:10E7F0004C280020FFFF0000A42C0020124948688C
:10E80000C005C00D19D0103840B2002807DA020741
:10E81000120F083A920892005118C96904E0810861
:10E820000A4A8900891809688007C00EC140880417
:10E83000000E012803D0032803D0022070470020D7
:10E84000704701207047000000ED00E000E400E0A8
:10E8500042788378521CD2B2934200D100220378CE
:10E86000934201D1002070470A7041684078182215
:10E87000504308187047FFB583B016460C9D0D9C99
:10E880001F46022200950194039800F00CF800281E
:10E8900007D13B461022314600950194039800F0C1
:10E8A00002F807B0F0BDFFB583B0074600200C9C0E
:10E8B0008646268805463AE07868A90041180A8805
:10E8C000684682804988C1800022694601A865DFC8
:10E8D000002839D1684601780598814226D17046D2
:10E8E000002801D0002200E0022220888918421866
:10E8F0000D998A4227D8714600290AD1401C80B25E
:10E900002080069A049911542088401C2080012000
:10E910008646218806980A18694601A865DF0028FE
:10E9200012D1694620880978401820806D1C3888EB
:10E93000A842C1DC704600280AD02088801B401EF7
:10E9400080B2FF2802D90C2007B0F0BD0699885587
:10E950000020F9E70179002902D1007B002800D0CE
:10E9600001207047142B0020342B0020602B002046
:10E97000110000001200000013000000140000004D
:10E980001100030095D101001200030095D1010090
:10E990001300030095D101001400030095D101007C
:10E9A000842C00209ECADC240EE5A9E093F3A3B5D5
:10E9B0000000406E182E002003000000DCE901007A
:10E9C00000280020D4000000EAC40100B0EA0100E1
:10E9D000D4280020640D0000FAC401000000FFFFED
:10E9E0000100020000000000000000000000000024
:10E9F0000000000000000000000000000000000017
:10EA0000000000000024F4000000000000000000EE
:10EA1000FFFF0000000000000000000000000000F8
:10EA200000000000000000000000000000000000E6
:10EA300000000000000000000000000000000000D6
:10EA400000000000000000000000000000000000C6
:10EA500000000000000000000000000000000000B6
:10EA600000000000000000000000000000000000A6
:10EA70000000000000000000000000000000000096
:10EA80000000000000000000000000000000000086
:10EA90000000000000000000000000000000000076
:10EAA0000000000000000000000000000000000066
:040000050001C0C175
:00000001FF
