:020000040001F9
:10800000482E0020158101002F81010031810100DF
:108010000000000000000000000000000000000060
:10802000000000000000000000000000338101009B
:1080300000000000000000003581010037810100D0
:108040003981010039810100D183010039810100AA
:108050003981010000000000E58101003981010043
:108060003981010039810100398101003981010024
:108070003981010039810100398101003981010014
:10808000398101003183010039810100398101000A
:1080900051830100398101005983010039810100B8
:1080A000398101003981010000000000000000005A
:1080B00000000000000000000000000000000000C0
:1080C0000348854600F07CF800480047619E0100A7
:1080D000482E0020401E00BF00BF00BF00BF00BFF1
:1080E00000BF00BF00BF00BF00BF00BF00BFF1D195
:1080F00070470000401E00BF00BF00BF00BF00BFB0
:1081000000BF00BF00BF00BF00BF00BF00BFF1D174
:10811000704700000321094802680A4302600848CA
:1081200002680A4302600748804707480047FEE7A5
:10813000FEE7FEE7FEE7FEE7FEE70000240500405D
:10814000540500407D830100C180010030B50B461D
:10815000014600202022012409E00D46D5409D4221
:1081600005D31D469540491B2546954040191546A7
:10817000521E002DF1DC30BD03460B439B0703D09C
:1081800009E008C9121F08C0042AFAD203E00B78DC
:10819000491C0370401C521EF9D27047D2B201E054
:1081A0000270401C491EFBD270470022F6E710B552
:1081B00013460A4604461946FFF7F0FF204610BD55
:1081C000064C0125064E05E02046E36807C82B4310
:1081D00098471034B442F7D3FFF776FF58B2010046
:1081E00078B20100F8B50024FF25013501262746A5
:1081F0000094284602F012FA002808D0344840685B
:10820000304204D0334800212818344301602D1D2A
:1082100076007F1CADB2042FEBD3FF207D3002F03F
:10822000FDF9002807D02C480021016040070443D5
:108230002A48006900902A4F200713D00126002504
:10824000304620420AD02748AA0011180869096957
:10825000C004C00E8903BA58890F904776006D1C80
:10826000042DEDD3002C30DA00241D4E00213019EE
:1082700040304156491C25D00778BD06AD0E284632
:1082800001F046FA80003658002E1BD0BF090121AC
:10829000A940154AA80080180068009A8003800F42
:1082A000114202D0022802D00CE003280AD1032F89
:1082B00005D102280AD00221284602F08FF939465A
:1082C0002846B047641C042CCFD3F8BD0321F3E744
:1082D00000630040006000407C61004000050050E9
:1082E000F024002000650040000700508307FF22B3
:1082F000DB0E9A408907090E994000280BDA000727
:10830000000F0838830808489B001B18D869904361
:108310000843D8617047830804489B001B181868FD
:10832000904308431860704700ED00E000E400E06F
:1083300010B506490020086048608860C86003499D
:1083400040390860486002F0C9FD10BD401101408D
:1083500010B502F05BFD10BD10B50748406800285D
:1083600007D08047002803D00022114600F0A6FA6B
:1083700010BD01F0E1FB10BDDC20002010B501F0C4
:1083800029FC002805D00E490C484860C8130D4947
:1083900088610D48018CC9B201290ED1818C090771
:1083A0000BD1018D0906090F042906D1808D000625
:1083B000000F02D105490120886010BDDFFF07C012
:1083C00000050040006C0040C00F00F000060040B7
:1083D000F0B53C4D012185B04902284602F033F941
:1083E00001270026384C002823D0FF2125312846BC
:1083F00002F024F900281CD0FF21253128466E50B8
:108400008121324A89009160617D002900D1476055
:10841000022269460A7002F00BF90390E07C69467B
:108420000872E0680190E6746268684621689047C7
:108430001DE00421284602F006F9002817D0FF218C
:108440000931284602F0FAF8002810D002F094FA18
:10845000E07C217D88420AD1607D002800D16F60D8
:1084600081201A4980008860207D02F0E9FAFF210E
:108470001D31284602F0E2F800280DD0A07C218AA8
:10848000884202D902F06CFD06E0FF211D316E50DA
:10849000002801D002F0B8FDFF214531284602F046
:1084A000CDF800280CD0FF2045302E50607D0028EC
:1084B00000D02F60E07C002802D0207D02F0C0FABE
:1084C00005B0F0BD0020004038250020002300400A
:1084D00030B47446641E2578641CAB4200D21D463D
:1084E000635D5B00E31830BC184702E008C8121F48
:1084F00008C1002AFAD170477047002001E001C18D
:10850000121F002AFBD17047F7B584B000251688EA
:1085100007461580406B1446002813D00378059851
:10852000032E51D30221017021881122491C89B2E6
:10853000218042542188491C89B2218043542088DB
:10854000401C2080386B00281DD0054620880599E6
:1085500002461232B24237D811220A542088102221
:10856000401C80B220800A542088401C20800F20AC
:108570002A5C2388401ECA54228840B2521C2280A2
:108580000028F5DA0025384620300290807B00284C
:1085900006D033462246059901F040FB050014D170
:1085A0000298407B002806D032462146059800F00C
:1085B00003FD050009D1B878002823D00598864628
:1085C0002088001DB04202D90C2007B0F0BD6846DB
:1085D00079DF0028F9D12188032072465054208881
:1085E0001921401C80B22080115420887146401C03
:1085F00080B2208041186846008802F015FD21886D
:1086000040182080F878002817D0218803230A46D4
:10861000FB56C91C0598B142D6D802218154218845
:108620000122491C89B2218042542188491C89B207
:10863000218043542088401C20807868002817D06F
:1086400021880023C3560A46C91C0598B142BBD8ED
:108650000221815421880A22491C89B22180425476
:108660002188491C89B2218043542088401C2080E5
:10867000388900280AD00094384601960622022143
:108680000830059B02F045FD05009ED1388A002880
:108690000AD0009438460196072203211030059B2A
:1086A00002F037FD050090D1388B00280AD00094E5
:1086B00038460196152214211830059B02F029FD39
:1086C000050082D1386A002806D033462246059933
:1086D00001F014F90500D8D1786A002806D0334695
:1086E0002246059901F064FD0500CED10298007B79
:1086F000002807D0334622463846059902F0B0F9E3
:108700000500C2D13878002807D0334622463846C3
:10871000059901F0E1FD0500B7D1284655E710B5F0
:1087200000210122084600F00DFE002801D0072894
:1087300012D107220221012000F004FE002801D0FE
:10874000072809D100210A22084600F0FBFD002875
:1087500001D0072800D1002010BD000030B5A7B01F
:10876000382101A8FFF721FD02216846017100248C
:1087700084710521C17138210FA8FFF716FD01256D
:1087800010A885810D48149024211DA8FFF70DFD28
:1087900020A8057040202190B4202290084B1DAAEB
:1087A0000FA9009401A800F0B7F9002803D0002217
:1087B000114600F083F827B030BD000024200020CF
:1087C000D3A70100044842680121C9050B46934321
:1087D00083600A40C26070470005005010490020C5
:1087E000087148718871C871087248728872C872BD
:1087F000087348738873C873087448748874C8749D
:10880000087548758875C875087648768876C8767C
:10881000087748778877C8772031087048707047A4
:108820000020002070B50024064D06E06968E000D5
:10883000085C012101F0DEFD641C28788442F5D338
:10884000002070BDA8200020F8B50C46154606464D
:10885000052A01D20720F8BD01F09EFE002803D1B1
:1088600001F070FE0028F6D1104900204E600C7017
:10887000C8608D6008610E4D0DE0E00069688019E8
:10888000009181786A46517000780A4A694601F081
:1088900001FE0028DFD12046641EE4B20028ECD19E
:1088A000054A0021024800F015F8F8BDA820002074
:1088B00050B20100E59A0100F9990100BFF34F8F12
:1088C00003490248C860BFF34F8FFEE70400FA0572
:1088D00000ED00E0094B9B68002B07D0002A07D071
:1088E000002805D00068037C002B03D008207047C7
:1088F000072070474174426100207047BC2000206F
:10890000FFB59007002581B00E461446002832D1ED
:108910001B4F002C31D002F00DF804987861032031
:1089200038702246BC6018340020334618214B436F
:10893000C10089180D704D708E704C601C19401C60
:108940000328F5DBFD607D7001240E48BD70240511
:10895000046003211420FFF7C9FC0B4804600B4C92
:108960000198A06003211120FFF7C0FC6068386106
:10897000002005B0F0BD0720FBE7BD60FBE700006D
:10898000BC20002080E200E000E100E00015014092
:10899000FEB50D461B4917468968044600292AD0B2
:1089A000002C28D0052D01D20720FEBD60690028CB
:1089B00021D0607C012820D0002602F06DFBC00091
:1089C0001049019089684018694602F08FFB002821
:1089D00015D0012101700C49446049680830E2C09B
:1089E000084901988968411868460078487002F083
:1089F0004DFA0020FEBD0820FEBD2E46DDE7042016
:108A0000FEBD0000BC20002000150140F8B5134D4C
:108A10000446A96800291CD0002C1AD060690028DF
:108A200017D00026267402F037FBC700A8686946F5
:108A3000381802F05BFB00280DD002210170446061
:108A4000A868391868460078487002F01FFA304666
:108A5000F8BD0820F8BD0420F8BD0000BC200020AF
:108A6000F8B50F48182141600E4C002525600126FD
:108A7000066025600C4F3E6021680029FCD08068AC
:108A8000FF21E12212015043FFF760FB80B2256015
:108A90007E60642148430549FFF758FBC0B2F8BD2A
:108AA000007500400071004000700040B80B0000ED
:108AB000F0B50C4693B01F216A46118007260027A7
:108AC0009180002809D0C17849070DD502A9FFF788
:108AD0001BFD002809D102AD01E000251780002C04
:108AE0000ED0E078002802D0304613B0F0BD01AAC5
:108AF0000AA92046FFF708FD0028F6D10AAA02E0DD
:108B000068460022878068468088C3B2684600882D
:108B1000C1B2284672DFE8E770B50D4604991646E3
:108B200004003FD0002E3DD03F4800224271C36078
:108B30000161242231463D48FFF71EFB00F0B2F8E8
:108B40003A493431084610380160203181603821BB
:108B50005C38FFF72AFB3548217838380170A17856
:108B60008170E178C1706178417062692169426108
:108B70000161E268A168C26081600146E369A2699F
:108B8000CB618A61616A002916D00246AC32034685
:108B9000B83342629360616A0E881680898891803A
:108BA000002106E00E2070BD666AB668765C5E54F1
:108BB000491C96888E42F7D8A16A00291AD01B4B0F
:108BC000AC331A460C3A93608262A16A898891801C
:108BD000A16A09881180002104E0A66AB668765C63
:108BE0005E54491C96888E42F7D82C210A5D0F49A5
:108BF00018390A73216A002908D00B49143101621F
:108C0000226A52884A80226A12880A806168002992
:108C100004D00549891D41606168416003482946C7
:108C20003838FFF745FF70BD50200020E8230020B2
:108C300010B502881A4C102A17D00021112A17D01B
:108C4000192A11D1807900280ED1607901281BD012
:108C500002281FD003281FD0042805D12171E26803
:108C60000846002A00D0904710BD8088208110BDA2
:108C70006170808821898842F9D1012005E021694D
:108C80000029F4D0884710BD022000F033F80028F6
:108C9000F5D110BD0320F8E7032020710420F4E78C
:108CA0005020002010B507210148FFF77EFA10BDC3
:108CB0006820002010B50D480078012814D10C4C14
:108CC0006078002810D16079002802D074DF002875
:108CD0000BD101206070607900F00CF8002803D0FF
:108CE0002169002900D08847002010BDE82300201A
:108CF00050200020F0B5754C87B06071002606A8A2
:108D0000069601F003FE0127082806D000286FD13F
:108D10000698002802D02770D4E00696FFF7C2FF1D
:108D20006B4D6878002802D06079012805D0A878BA
:108D300000280AD06079022807D1E168002903D011
:108D4000E7700820884700E0E6706079012808D1C4
:108D50006878002809D05D48193001F0A9FD002885
:108D600003D06079022802D00CE002206071A8785C
:108D7000002805D05548193001F09AFD002801D18E
:108D800003206071287B002804D16079032801D179
:108D900004206071287E002804D16079042801D164
:108DA00066712671E16800290AD06079032801D034
:108DB000042805D12878002802D06078002818D02F
:108DC000A67018216846FFF7F0F96846067001960C
:108DD00006720396607901280FD0022816D03C4E07
:108DE000243637465C3F03281CD004285ED13BE084
:108DF00069E0A77007208847E3E7344818300190FE
:108E00006846077046820682277152E02F48183064
:108E100001906846077029894182A9880182022051
:108E2000207146E0A88A69464882288A0882284834
:108E3000243002F0DDF9002805D02878002802D07F
:108E40006078002801D003202FE0022069460872D4
:108E500004200396F8701E4800213838FFF728FEDA
:108E6000002830D1052020E0A88B69460882288C94
:108E700048821748243002F0BBF9002805D0287832
:108E8000002802D06078002801D004200DE00220E4
:108E90006946087204200396F8700D48002138389E
:108EA000FFF706FE00280ED1062020716079002809
:108EB00003D0684673DF002805D1E168002901D09E
:108EC00020798847002007B0F0BD00005020002026
:108ED000E823002070B5054601461C220E48FFF726
:108EE0004BF90E4C002626702968002906D008226E
:108EF000201DFFF741F9201D7ADF02E00748001D21
:108F00007BDF002807D1401E60806670044A002184
:108F10000448FFF7DFFC70BDD4240020702000203F
:108F200035B001003CB20100F8B5214C02880027A1
:108F30001E4DE689102A15D01E49112A21D0122A69
:108F40002DD0502A1CD1801D0288B24218D1028B2C
:108F5000022A15D1C27E837E10021843C007C00FBB
:108F60000CD112E081886980014610480822163130
:108F70000C30FFF701F96F70002E01D100F008FDF1
:108F8000F8BD0020C04368806F700868FFF73EFDA1
:108F90000028F5D0A1690029F2D08847F8BD811DCD
:108FA000024808220C30FFF7E7F8E7E770200020BE
:108FB000D42400203CB201007CB5054608880C464C
:108FC0000930904201D90C207CBD684671DF002831
:108FD000FAD121880820685420881B21401C80B2C7
:108FE00020802954208800A9401C80B2208040198C
:108FF00006220131FFF7C0F820886946801D80B243
:1090000020800978002900D0012129542088401CA3
:10901000208000207CBD000010B50446FFF784FFCF
:109020002146064800F040F8204601F0E7FB2046C4
:10903000FFF7FEFD204600F0B7F810BD2823002002
:1090400030B5184B0D4604000FCB85B003936B462B
:1090500007C324D0002D22D00020C043A08228685E
:10906000A0610020A0752146684663DF002814D166
:1090700021786846817401210182A21C04A9012083
:10908000A0DF002809D12946204601F08BFC0028EA
:1090900003D12946204601F079FF05B030BD0E20EE
:1090A000FBE7000040B2010000281ED000291CD0C0
:1090B0000A88102A14D0112A14D0502A15D1891DDB
:1090C0000A88038A9A4202D10B8B022B0ED0838826
:1090D0009A420AD18369002B07D00A8B1A311847AC
:1090E000898801E00021C94381827047CA7E8B7E56
:1090F00011021943C907C90F00D0012181757047BA
:1091000007B584B000280DD0828A114B9A420BD04B
:10911000827D002A08D06A46128B142A06D90720BD
:1091200007B000BD0E20FBE70820F9E700220092FF
:1091300001920292039282896B461A80039106A9DA
:10914000029101219970808A6946A6DFE8E7000054
:10915000FFFF00007CB5134E00250C46306000294F
:1091600018D06946002000F0B5F8002819D101A9EF
:10917000012000F0AFF8002813D1684601790020E3
:10918000002901D0022004E069460978002900D0B6
:109190000B2020707068002802D1FFF7C0FA054646
:1091A00028467CBD4420002010B51C4C0188606816
:1091B00010290DD011290AD1401E606007D1FFF798
:1091C000AEFA002803D02168002900D0884710BDDE
:1091D00000281ED100210122084600F0B3F8002823
:1091E00001D0072811D107220221012000F0AAF89E
:1091F000002801D0072808D100210422084600F0E9
:10920000A1F8002805D0072803D02168002900D044
:1092100088476068401C606010BD0000442000204A
:1092200010B5032000F01EFA002801D0062800D156
:10923000002010BDF8B507460024234802E0641C56
:10924000042C1AD2A2008258BA42F8D1042C14D2AB
:109250001D481E4E0C38002929D001290ED00229A4
:109260000BD16000201880194578002D05D01848D2
:109270000169002901D028468847F8BD61006118BE
:10928000755C8E19717800290CD011490A22496841
:10929000806851430E4A521CFFF77AFB002801D127
:1092A0000B4847700A48B17814300155DDE78068F3
:1092B000FFF7ACFB06486100611814308919005DA6
:1092C0008D78A842D1D0F8BD0CB2010084230020D3
:1092D0002C20002004280CD2074A1269074B80007A
:1092E0001B5C01209840904300D0012008700020B2
:1092F00070470020FAE70000000500500CB20100A2
:1093000010B50F4A04280BD0072814D00A2806D11C
:109310001078002801D000F0ABFC01F035FD10BD45
:109320001321508C76DF08E00028F8D00022114687
:10933000FFF7C4FA10BDFFF7BDFC0828F4D110BD3B
:109340000020002070B5002304280ED244000C4EEB
:109350000519AC19012A02D1022909D000220029DD
:109360000CD0012908D0022904D00723184670BD6B
:109370000D30C2B26270F9E77255F7E7A270F5E7F7
:109380008423002010B5054A0146127A0020D20736
:1093900002D0084600F054F810BD00002C20002038
:1093A00070B50E46204905464E608D6000200A616A
:1093B000A9071ED50024012202212046FFF7C2FF83
:1093C000641C042C02D20028F5D012E0002810D131
:1093D000720804211548FFF737FA002809D1FFF772
:1093E00021FA002805D11148114A00211438FFF74D
:1093F00071FAE90706D00F220E4952058A60002350
:10940000CB608A6100280DD108480B4A00211C3826
:10941000FFF760FA002805D10448084A01211838EE
:10942000FFF758FA70BD00002C2000201CB201008C
:10943000A196010000050050B99C0100C5870100FC
:10944000FEB5844D0721EA68890591430292019196
:109450000646696800208A00009107467E4C8918FC
:109460003300FFF735F8180D1515394B5B6F8688FB
:10947000919AA3F3AFAFAFAFAFD9DFE5ECF3F3143D
:109480000F21029A49059143A160E7602F70FEBD4C
:109490000198A060E76060680F214905484080029C
:1094A0006E4809D5A060E760022E02D1E120C0001D
:1094B0000AE07D20400107E0E060A760022E01D1B4
:1094C000C82001E0FF2091302E706421FEF73EFE9F
:1094D00000994143002247E00198A060E76060687E
:1094E0000F214905484080025C4804D5A060E76030
:1094F00019204001E8E7E060A760E1E70198A0607B
:10950000E76060680F21490548408002534802D552
:10951000A060E760CDE7E060A760D3E70198A060B6
:10952000E76060680F214905484080024B4802D53A
:10953000A060E76001E0E060A7602E700098410045
:10954000002211E00198A060E76060680F214905E2
:1095500048408002414802D5A060E76001E0E06039
:10956000A7602E70009900223D480068FFF710FAAE
:10957000FEBD019958E061680120800502468A43DA
:10958000A2600140E160EDE76068012292051346A8
:109590008343A3601040E060D2E760680121890541
:1095A0000A468243A2600840E060DBE7626801206F
:1095B000800503469343A3600240E260C0E7E16098
:1095C000A7602DE026484068FFF720FA11218A1B8A
:1095D00001D0002807D00F22E96852051140A16090
:1095E000E760EF60FEBD0121C905E960012A0CD9E1
:1095F0001046C82148436421FEF7A8FD696800228F
:10960000414317484068FFF7C3F90F22E968520544
:109610001140E160A760FEBD0F214905A160E76030
:109620002E70FEBD07218905A160E7600B49C6E7E2
:109630000D214905A160E76001218905BFE70321EC
:10964000C905A160E7608910B9E7FFE70F21490567
:10965000B5E700002C20002000050050000020008D
:1096600000B20100F0B500210B4C0C4D03273F0464
:109670008A00A25892005619326801238B40034099
:1096800000D00323BA431B0413433360491C04294D
:10969000EED30020F0BD00000CB201000007005026
:1096A00010B500780221FFF7C5FD10BD0022D2439E
:1096B000830004490428CA5002D3081820300277D6
:1096C00070470000F0240020F0B50025ED43002A8B
:1096D00002D00023042601E0042308260B4C04E0FA
:1096E0009F00E7597F1C04D05B1CB342F8D3284687
:1096F000F0BD26185DB2203635709E00A151002ABB
:10970000F5D1E11820310877F1E70000F0240020BE
:10971000024909182020085670470000F024002054
:1097200070B5FFF79DF9502827D21D4903224F231A
:1097300057240A254B2821D253200870482048700E
:10974000552088705420C870442008714B718C716A
:109750004E20C87108220D721248FFF7D1FC08286C
:1097600005D0002803D000221146FFF7A7F8FF20FC
:10977000F53000F001FE01F007FB70BD4C200870D1
:109780004B708C70CD7006490648FFF7B9FC08286D
:10979000F3D00028F1D000221146FFF78FF870BDFA
:1097A000F02000202823002010B50A2000F026FF1A
:1097B000092000F02BFF082000F028FF072000F010
:1097C00025FF062000F022FF10BD10B50A2000F092
:1097D0001DFF092000F012FF082000F017FF0720EE
:1097E00000F014FF062000F011FF10BD10B50A2094
:1097F00000F00CFF092000F009FF082000F0FEFE39
:10980000072000F003FF062000F000FF10BD10B598
:109810000A2000F0FBFE092000F0F8FE082000F00E
:10982000F5FE072000F0EAFE062000F0EFFE10BD76
:1098300010B50A2000F0EAFE092000F0E7FE08203B
:1098400000F0E4FE072000F0E1FE062000F0D6FE66
:1098500010BD0000F8B52348C16800293ED00E684D
:1098600021494C680769C078E11B0D022D0AED1CE7
:10987000002814D101201D4A000450601B4A403AC0
:1098800050601B49400008601A4908601A490120CD
:1098900008602F20FEF72EFC12490120C870B54247
:1098A00000D23546E81900020F4B000A4033186019
:1098B0000D4A5168001B091B0902090A0002C91C54
:1098C000000A814209D9506818602F20FEF712FC67
:1098D00001200749400480390860F8BD01F02AF8EA
:1098E000F8BD0000BC2000200015014040130140DD
:1098F00080E200E000E100E000100140F8B506461B
:10990000108814468446801D0D46984201D90C20CB
:10991000F8BD32880720062AFAD31927FF01184B11
:10992000BA4201D99A42F3D171880629F0D3B942DB
:1099300001D99942ECD19A4203D0994201D08A428E
:10994000E6D805216046295420881221401C80B2A7
:10995000208029542088401C80B220804119308802
:1099600001F062FB2188401880B220804119708884
:1099700001F05AFB2188401820800020F8BD00002B
:10998000FFFF000010B500221146FEF797FF10BD43
:10999000F8B5164800F010F9144D00260C3D144C93
:1099A000002807D0616900291CD001206A46107088
:1099B000684616E02878002805D06169002911D092
:1099C000684606700DE0687800280DD0A168094847
:1099D00000220068FEF7DCFF002803D0A1690029FF
:1099E00000D088472E70F8BD6168F0E77C20002029
:1099F000D42400203CB20100F8B500260124164D05
:109A000025E06968F00047183878214681402A69C6
:109A10000B46134219D08A432A6100F089FD0146A2
:109A200038782246EB6882401A400B4683409A42BF
:109A30000BD17A78012A01D0012200E000227B6854
:109A40004A40002B01D0D1B29847761CF6B2287854
:109A50008642D6D3F8BD0000A820002010B50E49DC
:109A600000234A788C78A24212D0521CD2B24A709B
:109A7000022A00D14B704A78074B920018339A584B
:109A80000260086910180002000A0861012010BD78
:109A90000360002010BD0000BC20002010B5002095
:109AA00000F094FD012000F091FD022000F08EFDF9
:109AB000032000F08BFD042000F088FD052000F05D
:109AC00085FD0A2000F082FD092000F07FFD0820BE
:109AD00000F07CFD072000F079FD062000F076FD07
:109AE00010BD0000F8B50746114E0125BD40306895
:109AF000FEF78CFF002806D10E4C20690146294252
:109B000002D0A8432061F8BD384600F011FD0028BE
:109B1000E06801D0284300E0A843E060206900220B
:109B200028432061A1683068FEF732FFF8BD0000CD
:109B300050B20100A8200020F8B51E4C2078002863
:109B400037D02069002807D00025E068002805D01C
:109B50000026002D04D013E00125F6E70126F8E7E2
:109B6000684651DF052806D0002806D0002211469D
:109B7000FEF7A4FE04E0012502E021690098884771
:109B8000002E12D1608869460880A06861DF052830
:109B900006D0002806D000221146FEF78FFE04E012
:109BA000012602E0E168A0688847002DD8D0002E89
:109BB000CFD0F8BDDC2000204188054802889142C2
:109BC00004D34088814201D80120704700207047AB
:109BD000742000201048018CC9B2012917D1818C52
:109BE000090714D1018D09060A0F03D1828D1206CF
:109BF000120F0ED0090F012903D1828D1206120F08
:109C000007D0032903D1808D0006000F01D000206A
:109C10007047012070470000C00F00F030B5158874
:109C2000EC1C9C4201D90C2030BD02244C551388F9
:109C30001C255B1C9BB21380CD5413885B1C9BB20C
:109C40001380012807D0022807D0032807D0042852
:109C500007D0072030BD002004E0012002E0CC54F2
:109C600001E00320C8541088401C1080002030BD43
:109C700010B5002000F0C2FC012000F0BFFC022063
:109C800000F0BCFC032000F0B9FC042000F0B6FC9E
:109C9000052000F0B3FC0A2000F0B8FC092000F019
:109CA000B5FC082000F0B2FC072000F0AFFC062055
:109CB00000F0ACFC10BD000010B50448017AC907E3
:109CC00002D00078FFF7BCFB10BD00002C20002064
:109CD000F8B52C49C8680A690C780F7989688646F6
:109CE000944600913EE00099E20055182A7836E04B
:109CF000182353436968521CC918AB78D2B29342F7
:109D000000D100220B78022B02D0032B27D123E0B5
:109D10004E680346014603E0B14204D00B46C969D0
:109D200000291CD0F8E7002919D08B4208D1C0695E
:109D3000002805D1144F0126BE600026B446012735
:109D40000E68C969D961002909D00B689B190B609D
:109D500005E00174C06900E000210028F9D16978AC
:109D60009142C5D12146641EE4B20029BBD1054908
:109D700062460A61C8600F71704501D00120F8BDCC
:109D80000020F8BDBC20002000100140F8B50446BA
:109D900031480026C168009107784EE02E48F9004E
:109DA00080680D1843E0002C02D02046E4691FE0D3
:109DB0002878182141436A68401CC0B251182870A5
:109DC000AA78904200D12E700A784868012A30D1D2
:109DD000027C002A2DD18A684260CA6882600A69C2
:109DE000C260496981611C490979002900D0466037
:109DF000194943680A699C46991A0902174B090ACE
:109E0000994202D28268891807E06146511A090214
:109E10008268090A8A4202D9511A016000E006608C
:109E20004660012186600174C66101F037F8002C9C
:109E3000B9D1287869788842BAD138467F1EFFB2F6
:109E40000028ABD10448C1680098814201D00120AC
:109E5000F8BD0020F8BD0000BC200020FFFF7F00FF
:109E6000002388B0C74A05211846FEF749FD00289F
:109E700003D000221146FEF721FDC34AC349032047
:109E8000FFF78EFA002803D000221146FEF716FDD8
:109E900069460020FFF75EF9002803D00022114632
:109EA000FEF70CFD6846007802287DD00020694648
:109EB0000871FFF7F3FDB349002348225C390D20F8
:109EC00000F08CFF002803D000221146FEF7F6FCBC
:109ED0000024009468460194047060DF002803D0D9
:109EE00000221146FEF7EAFCA94800F06DFF0028A9
:109EF00003D000221146FEF7E1FC112069460872EA
:109F00000522A4A102A87CDF002803D0002211466C
:109F1000FEF7D4FC009410216846019401803C2196
:109F20004180FF2184809131C1807ADF002803D0F5
:109F300000221146FEF7C2FC9848009069469848F6
:109F4000FFF77EF8002803D000221146FEF7B6FC8A
:109F5000FEF704FC1C216846FEF727F90521C9031A
:109F600001910F210904002002910090032269460B
:109F70000A73C88108748B4805908B480690684620
:109F8000FEF7A8FF002803D000221146FEF796FC3A
:109F90000320FEF7AFFE002803D000221146FEF793
:109FA0008DFC48DF002800E023E003D000221146AA
:109FB000FEF784FCFEF712FCFFF75AFE002000F0CB
:109FC00025FB012000F022FB022000F01FFB0320F4
:109FD00000F01CFB042000F019FB052000F016FB2C
:109FE000FF2700252D37714C01266078002802D00C
:109FF00032E001205BE726700A2000F0FFFA3846C5
:10A0000000F0BAF90A2000F001FB092000F0F6FA8E
:10A01000384600F0B1F9092000F0F8FA082000F005
:10A02000EDFA384600F0A8F9082000F0EFFA072012
:10A0300000F0E4FA384600F09FF9072000F0E6FA55
:10A04000062000F0DBFA384600F096F9062000F012
:10A05000DDFA60780028C8D0A07800285CD10A20FA
:10A0600000F0CCFA092000F0C9FA082000F0C6FA86
:10A07000072000F0C3FA062000F0C0FA002000F02C
:10A08000BDFA012000F0BAFA022000F0B7FA03206E
:10A0900000F0B4FA042000F0B1FA052000F0AEFAA6
:10A0A0002670002000F0B2FA384600F065F9002072
:10A0B00000F0A4FA012000F0A9FA384600F05CF99B
:10A0C000012000F09BFA022000F0A0FA384600F0D0
:10A0D00053F9022000F092FA032000F097FA384674
:10A0E00000F04AF9032000F089FA042000F08EFA0B
:10A0F000384600F041F9042000F080FA052000F015
:10A1000085FA384600F038F9052000F077FAFFF7B5
:10A1100007FBA07800282AD0012000F02DF900F0DC
:10A1200047FBA06A0300FEF7D3F905040A10161CCA
:10A13000220000F0DDFCFFF737FBA66217E000F01D
:10A1400019FDFFF742FB022010E000F055FDFFF77C
:10A150004DFB03200AE000F091FDFFF758FB0420BF
:10A1600004E000F0CDFDFFF763FB0020A0627D203E
:10A170006D1C0001854200D037E7FFF7D1FA0025BA
:10A1800033E700006021002001930100CD0C0000A6
:10A1900019900100467265745800000059A601002C
:10A1A000282300208DA801008599010000200020AF
:10A1B00070B51446828805460E46921C2088911C74
:10A1C0004118994201D8FE2A01D90C2070BD521CB9
:10A1D00032542088FF21401C80B2208031542088D6
:10A1E000401C80B220808119288800F01DFF218842
:10A1F000401880B22080AA88002A09D0A9680029C6
:10A2000008D08019FDF7B8FF2088A9884018208061
:10A21000002070BD072070BD10B52E4901220C46EC
:10A2200020340300FEF754F92F1A191B1D1F212398
:10A230001A1A1A1A2527292B2D2F1A1A1A1A3133EE
:10A240003537393B1A1A1A1A3D3F414345471A1A06
:10A250001A1A494B4D4F51531A004A7210BD0A72D7
:10A2600010BDCA7110BD8A7110BD4A7110BD0A714E
:10A2700010BDCA7310BD8A7310BD4A7310BD0A7336
:10A2800010BDCA7210BD8A7210BD4A7510BD0A7524
:10A2900010BDCA7410BD8A7410BD4A7410BD0A7412
:10A2A00010BDCA7610BD8A7610BD4A7610BD0A76FA
:10A2B00010BDCA7510BD8A7510BD627010BD2270C8
:10A2C00010BDCA7710BD8A7710BD4A7710BD0A77D6
:10A2D00010BD000000200020F8B50F46017814469C
:10A2E0000546012902D16878002806D02088821C02
:10A2F0009A422DD8012902D006E00720F8BD6978DE
:10A300004118891C994223D8181A801E86B26846C3
:10A3100006802188B81C081869467DDF0028EDD129
:10A320002878022805D169460988B14201D8092157
:10A330000AE00821012805D16878B04202D86A46AF
:10A34000108001E06846068068460088FE2801D932
:10A350000C20F8BD2288401CB8542088401C80B2D4
:10A360002080395420886946401C20800988401884
:10A3700020800020F8BD000070B50446044D03E0C5
:10A38000641E2846FDF7A6FE002CF9D170BD000022
:10A39000E70300008207D30EFF229A408907090EC7
:10A3A00010B5994000280BDA03071B0F083B9C08E7
:10A3B0000C4BA400E418E36993430B43E36107E00B
:10A3C0008408094BA400E418236893430B432360DB
:10A3D000C106C90E0120884004490860044908608C
:10A3E00010BD000000ED00E000E400E080E200E0CD
:10A3F00000E100E0F3B581B00F46019800F06EFA7D
:10A40000012400281E4E019817D0FFF781F980190A
:10A410002030007F8009032802D001280BD005E0FE
:10A420001848006901998C40204204D0032101980A
:10A4300000F0D4F8FEBD0221F9E700F05BFA002835
:10A44000F8D00198FFF764F905468100C81D0E4A4F
:10A45000F93089180A6980B222430A610B49401811
:10A4600000210160002FE5D00198FFF751F980002D
:10A4700030580028DED00648AC404460FEBD0000E5
:10A48000F0240020000500500065004000600040FE
:10A4900000630040FEB515460E460446002700F056
:10A4A00013FA002801D0082738E0F2782946204620
:10A4B000FFF70AF90546401C2FD0B078002807D0D6
:10A4C0001748A1000918086802229043086007E0B5
:10A4D00000217378204600910A46019100F064F84B
:10A4E000F078002810D00F48AA00101831780269BF
:10A4F0000D4B1A400261E206D20C8907890B0A4310
:10A5000001690A43026109E00848327840192030A5
:10A51000017F92011143017700E004273846FEBD18
:10A520000007005000650040FFE0FCFFF024002021
:10A5300003490969C140C807C00F00D00120704716
:10A540000005005070B5124D2879002801D0082070
:10A5500070BD0F4900204039421E0B182033401CAB
:10A56000C0B21A702028F8D300242046FFF79EF8C6
:10A57000641CE4B2082CF8D303210620FFF70AFF7D
:10A5800001200449C007486001202871002070BDE7
:10A59000302500200063004002480079002800D0E8
:10A5A000012070473025002030B552000A43990041
:10A5B000039C0A432102049D0A4329040A430249D9
:10A5C00080004018026030BD00070050024A03219D
:10A5D0008000801801607047000700508200064824
:10A5E0001018026803231B049A43026002680904DE
:10A5F0000A430260704700000007005001218140BB
:10A600000148C160704700000005005001218140F1
:10A610000148816070470000000500500349401860
:10A620000068012800D00020704700000060004052
:10A630000921C9014118086808607047405800287E
:10A6400000D00120704703221202801840680840A1
:10A6500000D001207047000070B50D46534901201D
:10A6600014468870FEF7BAF8002C6DD028780028C0
:10A670006BD0FFF7D1FD012C04D96878002867D092
:10A68000FFF7CAFD022C04D9A878002863D0FFF791
:10A69000C3FD032C04D9E87800285FD0FFF7BCFD88
:10A6A000042C04D9287900285BD0FFF7B5FD052CD0
:10A6B00004D96879002857D0FFF7AEFD062C04D9DD
:10A6C000A879002853D0FFF7A7FD072C04D9E87913
:10A6D00000284FD0FFF7A0FD082C04D9287A0028C5
:10A6E0004BD0FFF799FD092C04D9687A002847D090
:10A6F000FFF792FD0A2C04D9A87A002843D0FFF76F
:10A700008BFD0B2C04D9E87A00283FD0FFF784FD9D
:10A710000C2C04D9287B00283BD0FFF77DFD0D2CA5
:10A7200004D9687B002837D0FFF776FD0E2C04D9BA
:10A73000A87B002833D0FFF76FFD0F2C04D9E87BEE
:10A7400000282FD0FFF768FD70BD00F031F892E7C8
:10A7500000F02EF896E700F02BF89AE700F028F8C2
:10A760009EE700F025F8A2E700F022F8A6E700F047
:10A770001FF8AAE700F01CF8AEE700F019F8B2E7FE
:10A7800000F016F8B6E700F013F8BAE700F010F89A
:10A79000BEE700F00DF8C2E700F00AF8C6E700F0E7
:10A7A00007F8CAE700F004F870BD000000200020A0
:10A7B00010B50A20FFF72AFF0920FFF727FF08201E
:10A7C000FFF724FF0720FFF721FF0620FFF71EFFFA
:10A7D00010BD10B500280BD0032808D10220FEF7C9
:10A7E000D1FD002803D000221146FEF767F810BD06
:10A7F000FFF73EFA00F0C8FA10BD000070B50188FE
:10A80000214C0546102912D0112924D02046408C15
:10A81000132933D0522909D100231A461946A9DF3A
:10A82000002803D000221146FEF748F870BD07202B
:10A83000FEF7A8FD002803D000221146FEF73EF8DF
:10A84000A88860840120607020716071A071E0713F
:10A850002072607270BD0020FEF794FD002803D0C6
:10A8600000221146FEF72AF80020C0436084002031
:10A870006070FFF7FDF900F087FA70BD00231A46FB
:10A8800085217FDFCCE700000020002010B5007894
:10A89000002809D105483B21408C76DF002803D0F1
:10A8A00000221146FEF70AF810BD0000002000202B
:10A8B0000021425C002A01D001207047491C062972
:10A8C000F7D30020704700000349081820214156A3
:10A8D000C817401C70470000F024002004490818E5
:10A8E00020214156042901DB0120704700207047D8
:10A8F000F02400200449081820214156042901D2DF
:10A900000120704700207047F02400200749097992
:10A91000490701D408207047002804D00449497829
:10A920000160002070470E20704700008420002046
:10A930005025002070B501240B49600408600B49C4
:10A9400040108860094940398860094D6C602F20AB
:10A95000FDF7D0FBAC60074D00242F202C61FDF7E4
:10A96000C9FBEC7070BD000080E100E040130140C5
:10A9700000100140BC200020FF21074809310022BF
:10A980004250064881690648037DC268D154017D62
:10A99000491C017570470000002000400025004060
:10A9A0003825002070B500240546601C90B00007D3
:10A9B000000F08A9103008940870601C0007000FF1
:10A9C000103048708878F9263040801C88701C212F
:10A9D00001A8FDF7EAFB694608791021084369469A
:10A9E0000871029408A804940594079406902878A6
:10A9F00008A9887103206946888411200094087092
:10AA000048708878E7213040801C08400126304398
:10AA10006946887014210AA8FDF7C7FB09A80A90A7
:10AA200068460B9069460E8614204C8688862B4615
:10AA300068880C330AAA01A9A2DF10B070BD00001B
:10AA40001FB5012269460A7008720448C168019165
:10AA50000021C17406C8684690471FBD38250020F4
:10AA6000FFB50746806A81B0144600283DD0002516
:10AA700038462030009033E00C20B96A68430E1845
:10AA8000B088801CFE2802D90C2005B0F0BD2288B9
:10AA90000299401C885420881622401C80B22080D5
:10AAA00002990A542088401C80B2208002994118E3
:10AAB000308800F0B9FA2188401880B22080B2882E
:10AAC000002A0AD0B16800290FD0029BC018FDF7F8
:10AAD00053FB2088B188401820806D1C0098EDB28F
:10AAE000007BA842C8D80020CFE70720CDE70000B0
:10AAF00010B51F4C2079002821D00020FFF786FDDB
:10AB0000607900281FD00120FFF780FDA079002880
:10AB10001DD00220FFF77AFDE07900281BD003202A
:10AB2000FFF774FD207A002819D00420FFF76EFD8E
:10AB3000607A002817D00520FFF768FD10BD0020BF
:10AB4000FFF75CFDDCE70120FFF758FDDEE70220A0
:10AB5000FFF754FDE0E70320FFF750FDE2E7042094
:10AB6000FFF74CFDE4E70520FFF748FD10BD0000AE
:10AB70000020002010B51F4CA07A002821D0002012
:10AB8000FFF744FDE07A00281FD00120FFF73EFDCB
:10AB9000207B00281DD00220FFF738FD607B0028B5
:10ABA0001BD00320FFF732FDA07B002819D0042022
:10ABB000FFF72CFDE07B002817D00520FFF726FDCE
:10ABC00010BD0020FFF71AFDDCE70120FFF716FD9E
:10ABD000DEE70220FFF712FDE0E70320FFF70EFD9E
:10ABE000E2E70420FFF70AFDE4E70520FFF706FD92
:10ABF00010BD00000020002010B51F4C207C002854
:10AC000021D00020FFF702FD607C00281FD001202A
:10AC1000FFF7FCFCA07C00281DD00220FFF7F6FC0B
:10AC2000E07C00281BD00320FFF7F0FC207D0028EB
:10AC300019D00420FFF7EAFC607D002817D005201A
:10AC4000FFF7E4FC10BD0020FFF7D8FCDCE7012093
:10AC5000FFF7D4FCDEE70220FFF7D0FCE0E703209B
:10AC6000FFF7CCFCE2E70420FFF7C8FCE4E705208F
:10AC7000FFF7C4FC10BD00000020002010B51F4CE1
:10AC8000A07D002821D00020FFF7C0FCE07D002837
:10AC90001FD00120FFF7BAFC207E00281DD0022023
:10ACA000FFF7B4FC607E00281BD00320FFF7AEFC4A
:10ACB000A07E002819D00420FFF7A8FCE07E002821
:10ACC00017D00520FFF7A2FC10BD0020FFF796FC6F
:10ACD000DCE70120FFF792FCDEE70220FFF78EFCA5
:10ACE000E0E70320FFF78AFCE2E70420FFF786FC99
:10ACF000E4E70520FFF782FC10BD000000200020E3
:10AD000010B5204C207F002823D00020FFF77EFCC8
:10AD1000607F002821D00120FFF778FCA07F002869
:10AD20001FD00220FFF772FCE07F00281DD0032017
:10AD3000FFF76CFC134C20342078002819D0042035
:10AD4000FFF764FC6078002817D00520FFF75EFC51
:10AD500010BD0020FFF752FCDAE70120FFF74EFCA0
:10AD6000DCE70220FFF74AFCDEE70320FFF746FCA2
:10AD7000E0E70420FFF742FCE4E70520FFF73EFC94
:10AD800010BD00000020002010B50020FEF7FAFAE8
:10AD9000002803D000221146FDF790FDFEF740FA8F
:10ADA000002803D000221146FDF788FD3CDF002873
:10ADB00003D000221146FDF781FD10BD10B50846F5
:10ADC0001146C046C04610BD002803D00249C860E5
:10ADD000002070470E207047DC20002070B500294D
:10ADE00001D08C0701D0072070BD064C0125A16061
:10ADF00062800549636010DF0028F5D125701620B8
:10AE00002EDF70BDDC200020BDAD0100FEB51E4C64
:10AE100000252769E06802906846FEF71FFE019052
:10AE2000FEF756FF0646019800281FD00023009821
:10AE3000E16817E00E680A46864202D9301A0860B7
:10AE400012E0801BF31800261660D668D169B4465C
:10AE5000002E07D0FE183602360A56606646966007
:10AE6000D56115460029E5D10126E1602846FEF7A7
:10AE70008DFF002801D1002E02D00298FEF7EAFCD7
:10AE800000202071FEBD0000BC20002001200249EE
:10AE9000000508607047000000E200E010B50E4BAE
:10AEA000D968002906D002680C68A24204D8A21A08
:10AEB0000A60C161D86010BD0B4604E00B46C96949
:10AEC000121B002904D00C689442F7D3A41A0C601A
:10AED0000260C161D86110BDBC200020F8B51E4DD4
:10AEE000EC68002C36D01D48002740682969401ABC
:10AEF0000602360A2068B0421AD8361AC719224606
:10AF0000107CE469002811D0002010746B69002BBC
:10AF100009D0916950699847002807D0002211464E
:10AF2000FDF7CCFC02E0516990698847002CE1D123
:10AF30006978A878814206D1401CC0B2A870022866
:10AF400001D10020A87004490006800D18310F506F
:10AF5000FFF79CFFF8BD0000BC2000200015014059
:10AF6000FF2107481D31002242500648028A8168AD
:10AF7000895C028A521C02820348C161704700004A
:10AF800000200040382500200025004070B58EB01C
:10AF900005461C216846FDF708F9694608780C212A
:10AFA00008436946087000240194039404940594AE
:10AFB0000694287808A98870022069460884601CD5
:10AFC0000007000F10300794087711204877887F1A
:10AFD000F9210840801CE7210840012630436946DA
:10AFE0008877142109A8FDF7E0F808A8099007A8B8
:10AFF0000A9069468E851420CC85088668882B1DAA
:10B0000009AAA2DF0EB070BD1FB500216A461170FB
:10B010001072044882680192817406C8684690479D
:10B020001FBD0000382500200870000A487002206B
:10B030007047000038B51549154A488890420FD02E
:10B040004A78144C521CD2B24A70237B934208D3E4
:10B05000091D75DF002803D0A169002900D08847A9
:10B0600038BD00254D70217C002907D03B2176DFBB
:10B07000002803D0A169002900D088476169002910
:10B08000EED068460570884738BD0000702000206B
:10B09000FFFF0000D424002012494868C005C00DFD
:10B0A00019D0103840B2002807DA0207120F083A08
:10B0B000920892005118C96904E081080A4A89007F
:10B0C000891809688007C00EC1408804000E012855
:10B0D00003D0032803D002207047002070470120CE
:10B0E0007047000000ED00E000E400E04278837863
:10B0F000521CD2B2934200D100220378934201D174
:10B10000002070470A7041684078182250430818A0
:10B110007047FFB583B016460C9D0D9C1F4602225A
:10B1200000950194039800F00CF8002807D13B46E5
:10B130001022314600950194039800F002F807B000
:10B14000F0BDFFB583B0074600200C9C86462688DC
:10B1500005463AE07868A90041180A886846828066
:10B160004988C1800022694601A865DF002839D1DD
:10B17000684601780598814226D17046002801D0A2
:10B18000002200E002222088891842180D998A4284
:10B1900027D8714600290AD1401C80B22080069A27
:10B1A000049911542088401C208001208646218863
:10B1B00006980A18694601A865DF002812D1694679
:10B1C00020880978401820806D1C3888A842C1DC8E
:10B1D000704600280AD02088801B401E80B2FF28BD
:10B1E00002D90C2007B0F0BD069988550020F9E778
:10B1F0000179002902D1007B002800D0012070478E
:10B20000442300206423002090230020110000002C
:10B2100012000000130000001400000011000300E1
:10B220003592010012000300359201001300030063
:10B23000359201001400030035920100B42400206F
:10B240009ECADC240EE5A9E093F3A3B50000406E8E
:10B25000282600200300000078B201000020002012
:10B26000F0000000EA84010068B30100F020002033
:10B27000580D0000FA8401000000000000000000EA
:10B2800000000000000000000000000000000000BE
:10B2900000000000000000000000FFFF01000200AD
:10B2A000000000000000000000000000000000009E
:10B2B000000000000000000000000000000000008E
:10B2C000000000000024F400000000000000000066
:10B2D000FFFF000000000000000000000000000070
:10B2E000000000000000000000000000000000005E
:10B2F000000000000000000000000000000000004E
:10B30000000000000000000000000000000000003D
:10B31000000000000000000000000000000000002D
:10B32000000000000000000000000000000000001D
:10B33000000000000000000000000000000000000D
:10B3400000000000000000000000000000000000FD
:10B3500000000000000000000000000000000000ED
:08B360000000000000000000E5
:04000005000180C1B5
:00000001FF
